:0E0000001EC0FECFFDCF4EC0FBCFFACFF9CF12
:10000E00F8CFF7CFF6CF0000000000000000000090
:10001E0001002D4E414E00494E46000001000200E7
:10002E001400070004001600010070001E000000FE
:10003E00F894EE27ECBBE5BF8DE0A2E0ED938A9538
:10004E00E9F780E4A0E6ED938A95E9F7EAE2F0E0BD
:10005E00C8953196802DC8953196902D0097B9F0A0
:10006E00C8953196A02DC8953196B02DC89531966C
:10007E00102CC89531966E2F7F2FF02DE12DC8953F
:10008E0031960D920197D9F7E62FF72FE1CFEFE9D1
:10009E00EDBFC0E750C0EA93FA93EFB7EA93EAE6F2
:1000AE00E2BFE1E0F0E04E0E5F1EE991EFBFF99185
:1000BE00E9911895E9B7E03011F0E0E0E9BF089555
:1000CE00E9B7E03041F444245524EAE6E2BFE0E02B
:1000DE00E8BFE2E0E9BF0895B39B02C020FE01C075
:1000EE0003C06394689420F8B39902C020FC01C049
:1000FE0002C0E89420F80FC0B49B02C021FE01C0DC
:10010E0003C07394689421F8B49902C021FC01C015
:10011E0002C0E89421F888E28A95F1F70895CADFC3
:10012E00C1984424552488249924E89424F86624FC
:10013E00772488950895E8E2F0E0FA93EA93A4E133
:10014E00B0E097D00E2F1F2FE0E8E6BDE3E0E6BD4E
:10015E00E7BBE0E0E8BBEFBDE2E0E3BFEAE6E2BF0B
:10016E00E0E0E6BFE9BDE9BFEBBFE0E3E5BFE0E8F5
:10017E00E8B9E0E0E3B9E4BBE6B9C19A7894A0DF50
:10018E00ABDFBADFE8EEF3E04E165F0680F192DFEA
:10019E00E1E0F0E08E0E9F1EEDE26E1610F0689418
:1001AE0008C022FE02C023FE01C002C0E1E0AE2E56
:1001BE00E89422F8EDE27E1610F0689408C023FE53
:1001CE0002C022FE01C002C0E2E0AE2EE89423F887
:1001DE0066247724C09909C022FC07C023FC05C001
:1001EE0024FC03C0801691060CF001C098DF22FC9F
:1001FE0002C023FE03C0AA24E89424F8C09906C0C6
:10020E0022FE04C0E8E2F0E040D00CF401C0C09A37
:10021E00C09906C023FE04C0E4E1F0E036D00CF431
:10022E0001C0C09AE1E0EA1519F0E2E0EA1511F416
:10023E0024FE01C004C088249924689424F8C09B2D
:10024E0007C0E1E0EA1521F4E4EBF0E01ED00CF477
:10025E0002C0C09864DFC09B07C0E2E0EA1521F43B
:10026E00E8E7F0E012D00CF402C0C09858DF87CF58
:10027E00FFCFBA93AA93A991B991E991F991AE17CB
:10028E00BF0714F0EA2FFB2F08958E169F060895D0
:00000001FF
