:0E0000001EC0FECFFDCF4EC0FBCFFACFF9CF12
:10000E00F8CFF7CFF6CF0000000000000000000090
:10001E0001002D4E414E00494E46000001000200E7
:10002E001400070004001600010070001E000000FE
:10003E00F894EE27ECBBE5BF8DE0A2E0ED938A9538
:10004E00E9F780E4A0E6ED938A95E9F7EAE2F0E0BD
:10005E00C8953196802DC8953196902D0097B9F0A0
:10006E00C8953196A02DC8953196B02DC89531966C
:10007E00102CC89531966E2F7F2FF02DE12DC8953F
:10008E0031960D920197D9F7E62FF72FE1CFEFE9D1
:10009E00EDBFC0E753C0EA93FA93EFB7EA93EAE6EF
:1000AE00E2BFE1E0F0E04E0E5F1EE991EFBFF99185
:1000BE00E9911895E9B7E03011F0E0E0E9BF089555
:1000CE00E9B7E03041F444245524EAE6E2BFE0E02B
:1000DE00E8BFE2E0E9BF0895B39B02C020FE01C075
:1000EE0003C06394689420F8B39902C020FC01C049
:1000FE0002C0E89420F80FC0B49B02C021FE01C0DC
:10010E0003C07394689421F8B49902C021FC01C015
:10011E0002C0E89421F888E28A95F1F70895CADFC3
:10012E00C1984424552488249924E89424F825F869
:10013E0066247724A0EDB7E0D1D00895ECE3F0E08B
:10014E00FA93EA93A4E1B0E0B5D00E2F1F2FE0E8AA
:10015E00E6BDE3E0E6BDE7BBE0E0E8BBEFBDE2E015
:10016E00E3BFEAE6E2BFE0E0E6BFE9BDE9BFEBBF11
:10017E00E0E3E5BFE0E8E8B9E0E0E3B9E4BBE6B907
:10018E00C19A78949DDFA8DFB7DFE8EEF3E04E1654
:10019E005F06C0F18FDFE1E0F0E08E0E9F1EEDE214
:1001AE006E1610F068940FC022FE02C023FE01C02E
:1001BE0009C0E1E0AE2E24FE02C088D008F002C0D5
:1001CE00E2E0AE2EE89422F8EDE27E1628F0689476
:1001DE0023F8E89424F809C023FE02C022FE01C0D1
:1001EE0002C0E2E0AE2EE89423F866247724C0998C
:1001FE0007C022FC05C023FC03C08016910608F040
:10020E0001C08DDF22FC02C023FE1AC0C19BC19A21
:10021E0022FE04C024FC02C05ED009F005C0689422
:10022E0024F88824992409C022FE04C024FE02C0AA
:10023E0052D009F002C0E89424F824FA25F8AA2432
:10024E00C09904C022FE02C041D008F401C0C09A79
:10025E00C09907C023FE05C0E4E1F0E08E169F06AC
:10026E0008F401C0C09AE1E0EA1511F034D011F49F
:10027E0025FE01C004C088249924689425F8C09BEB
:10028E0008C0E1E0EA1529F4E6EEF0E08E169F06CE
:10029E0008F402C0C09843DFC09B07C01CD029F4ED
:1002AE00E0E5F0E08E169F0608F402C0C09837DF36
:1002BE0069CFFFCFBA93AA93A991B991E991F99118
:1002CE00AE17BF0714F0EA2FFB2F0895ECE3F0E012
:1002DE008E169F060895E2E0EA150895109639F0FD
:1002EE00A8958CE291E00197F1F71197C9F708955F
:00000001FF
