:0400000014C0FECF5B
:10000400FDCF44C0FBCFFACFF9CFF8CFF7CFF6CF6F
:1000140000000000000000000100020014000500C0
:10002400040016000000F894EE27ECBBE5BF8DE059
:10003400A2E0ED938A95E9F780E4A0E6ED938A9532
:10004400E9F7ECE1F0E0C8953196802DC89531963A
:10005400902D0097B9F0C8953196A02DC89531968A
:10006400B02DC8953196102CC89531966E2F7F2FE0
:10007400F02DE12DC89531960D920197D9F7E62F11
:10008400F72FE1CFEFE9EDBFC0E751C0AA93EA93A0
:10009400FA93EFB7EA93EAE6E2BFA0E7ED91FD91A8
:1000A4003196FE93EE93E991EFBFF991E991A9910D
:1000B4001895E9B7E03011F0E0E0E9BF0895E9B739
:1000C400E03039F4F6D0EAE6E2BFE0E0E8BFE2E08F
:1000D400E9BF0895A0E0B399A1E0E0E024FCE1E0E9
:1000E400EED031F0E894B399689424F8B39943942A
:1000F4000895A0E0B499A1E0E0E025FCE1E0DFD0C0
:1001040031F0E894B499689425F8B4995394089517
:10011400D0DFC198CED066247724E89422F823F85F
:1001240044245524A8EEB3E0E1D08895089500EA6C
:1001340010E0E0E8E6BDE3E0E6BDE7BBE0E0E8BBF5
:10014400EFBDE2E0E3BFEAE6E2BFE0E0E6BFE9BD1F
:10015400E9BFEBBFE0E3E5BFE0E8E8B9E0E0E3B91D
:10016400E4BBE6B9A895E1B5E861E1BDE8E2E1BD2B
:100174007894C19AA4DFAEDFBCDFA0917000B09187
:100184007100A83EE3E0BE07C8F193DFE1E0F0E0D0
:100194006E0E7F1EEDE24E1610F068940FC020FE26
:1001A40002C021FE01C009C0E1E08E2E22FE02C081
:1001B4008DD008F002C0E2E08E2EE89420F8EDE243
:1001C4005E1628F0689421F8E89422F809C021FE0C
:1001D40002C020FE01C002C0E2E08E2EE89421F8A5
:1001E40044245524C09907C020FC05C021FC03C049
:1001F4006016710608F001C08BDFA89520FC02C0D0
:1002040021FE20C0C19BC19A20FE04C022FC02C072
:1002140062D009F005C0689422F8662477240FC0E0
:1002240020FE0AC022FE08C056D029F0E02FF12F8C
:1002340058D054D008F001C002C0E89422F822FA41
:1002440023F88824C09904C020FE02C03FD008F4DB
:1002540001C0C09AC09906C021FE04C0EEE1F0E0DE
:100264003DD008F401C0C09AE1E0E81511F033D0A4
:1002740011F423FE01C004C066247724689423F893
:10028400C09B07C0E1E0E81521F4E4EAF1E026D0E0
:1002940008F402C0C0983CDFC09B06C01CD021F407
:1002A400EAE5F0E01BD008F402C0C09831DF62CF69
:1002B400FFCFE0E0E0937000E09371000895B0E0B8
:1002C400A7FDBFEFF0E0EA17FB070895E0EAF0E0CE
:1002D4006E167F060895E2E0E81508956E167F060F
:1002E4000895EE0FFF1FEE0FFF1F0895109639F0CB
:1002F400A8958CE291E00197F1F71197C9F7089559
:00000001FF
